{
  "_format": "hh-sol-artifact-1",
  "contractName": "BuyMeCoffee",
  "sourceName": "contracts/BuyMeCoffee.sol",
  "abi": [
    {
      "inputs": [],
      "stateMutability": "nonpayable",
      "type": "constructor"
    },
    {
      "anonymous": false,
      "inputs": [
        {
          "indexed": true,
          "internalType": "address",
          "name": "from",
          "type": "address"
        },
        {
          "indexed": false,
          "internalType": "string",
          "name": "amount",
          "type": "string"
        },
        {
          "indexed": false,
          "internalType": "string",
          "name": "message",
          "type": "string"
        }
      ],
      "name": "NewCoffee",
      "type": "event"
    },
    {
      "inputs": [],
      "name": "getAllCoffees",
      "outputs": [
        {
          "components": [
            {
              "internalType": "address",
              "name": "sender",
              "type": "address"
            },
            {
              "internalType": "string",
              "name": "amount",
              "type": "string"
            },
            {
              "internalType": "string",
              "name": "message",
              "type": "string"
            }
          ],
          "internalType": "struct BuyMeCoffee.Coffee[]",
          "name": "",
          "type": "tuple[]"
        }
      ],
      "stateMutability": "view",
      "type": "function"
    },
    {
      "inputs": [],
      "name": "getTotalCoffees",
      "outputs": [
        {
          "internalType": "uint256",
          "name": "",
          "type": "uint256"
        }
      ],
      "stateMutability": "view",
      "type": "function"
    },
    {
      "inputs": [],
      "name": "owner",
      "outputs": [
        {
          "internalType": "address",
          "name": "",
          "type": "address"
        }
      ],
      "stateMutability": "view",
      "type": "function"
    },
    {
      "inputs": [
        {
          "internalType": "address",
          "name": "sender",
          "type": "address"
        },
        {
          "internalType": "string",
          "name": "_amount",
          "type": "string"
        },
        {
          "internalType": "string",
          "name": "_message",
          "type": "string"
        }
      ],
      "name": "transfer",
      "outputs": [],
      "stateMutability": "nonpayable",
      "type": "function"
    }
  ],
  "bytecode": "0x60806040523480156200001157600080fd5b506200005d6040518060400160405280601481526020017f436f6e747261637420636f6e73747275637465640000000000000000000000008152506200006360201b620004821760201c565b620001f7565b62000103816040516024016200007a919062000170565b6040516020818303038152906040527f41304fac000000000000000000000000000000000000000000000000000000007bffffffffffffffffffffffffffffffffffffffffffffffffffffffff19166020820180517bffffffffffffffffffffffffffffffffffffffffffffffffffffffff83818316178352505050506200010660201b60201c565b50565b60008151905060006a636f6e736f6c652e6c6f679050602083016000808483855afa5050505050565b60006200013c8262000194565b6200014881856200019f565b93506200015a818560208601620001b0565b6200016581620001e6565b840191505092915050565b600060208201905081810360008301526200018c81846200012f565b905092915050565b600081519050919050565b600082825260208201905092915050565b60005b83811015620001d0578082015181840152602081019050620001b3565b83811115620001e0576000848401525b50505050565b6000601f19601f8301169050919050565b610de280620002076000396000f3fe608060405234801561001057600080fd5b506004361061004c5760003560e01c806381378af7146100515780638da5cb5b1461006d578063b02eafb11461008b578063c2000268146100a9575b600080fd5b61006b600480360381019061006691906107a2565b6100c7565b005b610075610238565b60405161008291906109a0565b60405180910390f35b61009361025e565b6040516100a09190610ac0565b60405180910390f35b6100b16102a9565b6040516100be91906109bb565b60405180910390f35b60016000808282546100d99190610b97565b92505081905550610104604051806060016040528060298152602001610d846029913933848461051b565b600260405180606001604052803373ffffffffffffffffffffffffffffffffffffffff16815260200184815260200183815250908060018154018082558091505060019003906000526020600020906003020160009091909190915060008201518160000160006101000a81548173ffffffffffffffffffffffffffffffffffffffff021916908373ffffffffffffffffffffffffffffffffffffffff16021790555060208201518160010190805190602001906101c3929190610682565b5060408201518160020190805190602001906101e0929190610682565b5050503373ffffffffffffffffffffffffffffffffffffffff167f7d6c961373900aef49d5fec9fed126d9452ee17e8969dd929602b248899f4c28838360405161022b929190610a59565b60405180910390a2505050565b600160009054906101000a900473ffffffffffffffffffffffffffffffffffffffff1681565b60006102a16040518060400160405280601a81526020017f546f74616c20636f66666565732072656365697665643a2025730000000000008152506000546105bd565b600054905090565b60606002805480602002602001604051908101604052809291908181526020016000905b8282101561047957838290600052602060002090600302016040518060600160405290816000820160009054906101000a900473ffffffffffffffffffffffffffffffffffffffff1673ffffffffffffffffffffffffffffffffffffffff1673ffffffffffffffffffffffffffffffffffffffff16815260200160018201805461035690610c6b565b80601f016020809104026020016040519081016040528092919081815260200182805461038290610c6b565b80156103cf5780601f106103a4576101008083540402835291602001916103cf565b820191906000526020600020905b8154815290600101906020018083116103b257829003601f168201915b505050505081526020016002820180546103e890610c6b565b80601f016020809104026020016040519081016040528092919081815260200182805461041490610c6b565b80156104615780601f1061043657610100808354040283529160200191610461565b820191906000526020600020905b81548152906001019060200180831161044457829003601f168201915b505050505081525050815260200190600101906102cd565b50505050905090565b6105188160405160240161049691906109dd565b6040516020818303038152906040527f41304fac000000000000000000000000000000000000000000000000000000007bffffffffffffffffffffffffffffffffffffffffffffffffffffffff19166020820180517bffffffffffffffffffffffffffffffffffffffffffffffffffffffff8381831617835250505050610659565b50565b6105b78484848460405160240161053594939291906109ff565b6040516020818303038152906040527f245986f2000000000000000000000000000000000000000000000000000000007bffffffffffffffffffffffffffffffffffffffffffffffffffffffff19166020820180517bffffffffffffffffffffffffffffffffffffffffffffffffffffffff8381831617835250505050610659565b50505050565b61065582826040516024016105d3929190610a90565b6040516020818303038152906040527f9710a9d0000000000000000000000000000000000000000000000000000000007bffffffffffffffffffffffffffffffffffffffffffffffffffffffff19166020820180517bffffffffffffffffffffffffffffffffffffffffffffffffffffffff8381831617835250505050610659565b5050565b60008151905060006a636f6e736f6c652e6c6f679050602083016000808483855afa5050505050565b82805461068e90610c6b565b90600052602060002090601f0160209004810192826106b057600085556106f7565b82601f106106c957805160ff19168380011785556106f7565b828001600101855582156106f7579182015b828111156106f65782518255916020019190600101906106db565b5b5090506107049190610708565b5090565b5b80821115610721576000816000905550600101610709565b5090565b600061073861073384610b00565b610adb565b90508281526020810184848401111561075057600080fd5b61075b848285610c29565b509392505050565b60008135905061077281610d6c565b92915050565b600082601f83011261078957600080fd5b8135610799848260208601610725565b91505092915050565b6000806000606084860312156107b757600080fd5b60006107c586828701610763565b935050602084013567ffffffffffffffff8111156107e257600080fd5b6107ee86828701610778565b925050604084013567ffffffffffffffff81111561080b57600080fd5b61081786828701610778565b9150509250925092565b600061082d838361093a565b905092915050565b61083e81610bed565b82525050565b61084d81610bed565b82525050565b600061085e82610b41565b6108688185610b64565b93508360208202850161087a85610b31565b8060005b858110156108b657848403895281516108978582610821565b94506108a283610b57565b925060208a0199505060018101905061087e565b50829750879550505050505092915050565b60006108d382610b4c565b6108dd8185610b75565b93506108ed818560208601610c38565b6108f681610d5b565b840191505092915050565b600061090c82610b4c565b6109168185610b86565b9350610926818560208601610c38565b61092f81610d5b565b840191505092915050565b60006060830160008301516109526000860182610835565b506020830151848203602086015261096a82826108c8565b9150506040830151848203604086015261098482826108c8565b9150508091505092915050565b61099a81610c1f565b82525050565b60006020820190506109b56000830184610844565b92915050565b600060208201905081810360008301526109d58184610853565b905092915050565b600060208201905081810360008301526109f78184610901565b905092915050565b60006080820190508181036000830152610a198187610901565b9050610a286020830186610844565b8181036040830152610a3a8185610901565b90508181036060830152610a4e8184610901565b905095945050505050565b60006040820190508181036000830152610a738185610901565b90508181036020830152610a878184610901565b90509392505050565b60006040820190508181036000830152610aaa8185610901565b9050610ab96020830184610991565b9392505050565b6000602082019050610ad56000830184610991565b92915050565b6000610ae5610af6565b9050610af18282610c9d565b919050565b6000604051905090565b600067ffffffffffffffff821115610b1b57610b1a610d2c565b5b610b2482610d5b565b9050602081019050919050565b6000819050602082019050919050565b600081519050919050565b600081519050919050565b6000602082019050919050565b600082825260208201905092915050565b600082825260208201905092915050565b600082825260208201905092915050565b6000610ba282610c1f565b9150610bad83610c1f565b9250827fffffffffffffffffffffffffffffffffffffffffffffffffffffffffffffffff03821115610be257610be1610cce565b5b828201905092915050565b6000610bf882610bff565b9050919050565b600073ffffffffffffffffffffffffffffffffffffffff82169050919050565b6000819050919050565b82818337600083830152505050565b60005b83811015610c56578082015181840152602081019050610c3b565b83811115610c65576000848401525b50505050565b60006002820490506001821680610c8357607f821691505b60208210811415610c9757610c96610cfd565b5b50919050565b610ca682610d5b565b810181811067ffffffffffffffff82111715610cc557610cc4610d2c565b5b80604052505050565b7f4e487b7100000000000000000000000000000000000000000000000000000000600052601160045260246000fd5b7f4e487b7100000000000000000000000000000000000000000000000000000000600052602260045260246000fd5b7f4e487b7100000000000000000000000000000000000000000000000000000000600052604160045260246000fd5b6000601f19601f8301169050919050565b610d7581610bed565b8114610d8057600080fd5b5056fe2573206861732073656e74202573206574686572207769746820746865206d6573736167653a202573a2646970667358221220db64f6bbccd1d81eff34b2c1e261380ba928d7a74450cdcd20034f4e5a48b69f64736f6c63430008040033",
  "linkReferences": {},
  "deployedLinkReferences": {}
}