{
  "_format": "hh-sol-artifact-1",
  "contractName": "BuyMeCoffee",
  "sourceName": "contracts/BuyMeCoffee.sol",
  "abi": [
    {
      "inputs": [],
      "stateMutability": "payable",
      "type": "constructor"
    },
    {
      "anonymous": false,
      "inputs": [
        {
          "indexed": true,
          "internalType": "address",
          "name": "from",
          "type": "address"
        },
        {
          "indexed": false,
          "internalType": "string",
          "name": "amount",
          "type": "string"
        },
        {
          "indexed": false,
          "internalType": "string",
          "name": "message",
          "type": "string"
        }
      ],
      "name": "NewCoffee",
      "type": "event"
    },
    {
      "inputs": [
        {
          "internalType": "string",
          "name": "_message",
          "type": "string"
        },
        {
          "internalType": "string",
          "name": "_amount",
          "type": "string"
        }
      ],
      "name": "deposit",
      "outputs": [],
      "stateMutability": "payable",
      "type": "function"
    },
    {
      "inputs": [],
      "name": "getAllCoffees",
      "outputs": [
        {
          "components": [
            {
              "internalType": "address",
              "name": "sender",
              "type": "address"
            },
            {
              "internalType": "string",
              "name": "amount",
              "type": "string"
            },
            {
              "internalType": "string",
              "name": "message",
              "type": "string"
            }
          ],
          "internalType": "struct BuyMeCoffee.Coffee[]",
          "name": "",
          "type": "tuple[]"
        }
      ],
      "stateMutability": "view",
      "type": "function"
    },
    {
      "inputs": [],
      "name": "getTotalCoffees",
      "outputs": [
        {
          "internalType": "uint256",
          "name": "",
          "type": "uint256"
        }
      ],
      "stateMutability": "view",
      "type": "function"
    },
    {
      "inputs": [],
      "name": "owner",
      "outputs": [
        {
          "internalType": "address payable",
          "name": "",
          "type": "address"
        }
      ],
      "stateMutability": "view",
      "type": "function"
    },
    {
      "inputs": [],
      "name": "withdraw",
      "outputs": [],
      "stateMutability": "nonpayable",
      "type": "function"
    }
  ],
  "bytecode": "0x608060405233600160006101000a81548173ffffffffffffffffffffffffffffffffffffffff021916908373ffffffffffffffffffffffffffffffffffffffff160217905550610ece806100546000396000f3fe60806040526004361061004a5760003560e01c80633ccfd60b1461004f5780637a9b486d146100665780638da5cb5b14610082578063b02eafb1146100ad578063c2000268146100d8575b600080fd5b34801561005b57600080fd5b50610064610103565b005b610080600480360381019061007b9190610806565b6101da565b005b34801561008e57600080fd5b5061009761034a565b6040516100a49190610a5b565b60405180910390f35b3480156100b957600080fd5b506100c2610370565b6040516100cf9190610b79565b60405180910390f35b3480156100e457600080fd5b506100ed6103bb565b6040516100fa9190610a76565b60405180910390f35b60004790506000600160009054906101000a900473ffffffffffffffffffffffffffffffffffffffff1673ffffffffffffffffffffffffffffffffffffffff168260405161015090610a46565b60006040518083038185875af1925050503d806000811461018d576040519150601f19603f3d011682016040523d82523d6000602084013e610192565b606091505b50509050806101d6576040517f08c379a00000000000000000000000000000000000000000000000000000000081526004016101cd90610b59565b60405180910390fd5b5050565b60016000808282546101ec9190610c5b565b925050819055506102176040518060600160405280602a8152602001610e6f602a9139338385610594565b600260405180606001604052803373ffffffffffffffffffffffffffffffffffffffff16815260200183815260200184815250908060018154018082558091505060019003906000526020600020906003020160009091909190915060008201518160000160006101000a81548173ffffffffffffffffffffffffffffffffffffffff021916908373ffffffffffffffffffffffffffffffffffffffff16021790555060208201518160010190805190602001906102d69291906106fb565b5060408201518160020190805190602001906102f39291906106fb565b5050503373ffffffffffffffffffffffffffffffffffffffff167f7d6c961373900aef49d5fec9fed126d9452ee17e8969dd929602b248899f4c28828460405161033e929190610af2565b60405180910390a25050565b600160009054906101000a900473ffffffffffffffffffffffffffffffffffffffff1681565b60006103b36040518060400160405280601a81526020017f546f74616c20636f66666565732072656365697665643a202573000000000000815250600054610636565b600054905090565b60606002805480602002602001604051908101604052809291908181526020016000905b8282101561058b57838290600052602060002090600302016040518060600160405290816000820160009054906101000a900473ffffffffffffffffffffffffffffffffffffffff1673ffffffffffffffffffffffffffffffffffffffff1673ffffffffffffffffffffffffffffffffffffffff16815260200160018201805461046890610d41565b80601f016020809104026020016040519081016040528092919081815260200182805461049490610d41565b80156104e15780601f106104b6576101008083540402835291602001916104e1565b820191906000526020600020905b8154815290600101906020018083116104c457829003601f168201915b505050505081526020016002820180546104fa90610d41565b80601f016020809104026020016040519081016040528092919081815260200182805461052690610d41565b80156105735780601f1061054857610100808354040283529160200191610573565b820191906000526020600020905b81548152906001019060200180831161055657829003601f168201915b505050505081525050815260200190600101906103df565b50505050905090565b610630848484846040516024016105ae9493929190610a98565b6040516020818303038152906040527f245986f2000000000000000000000000000000000000000000000000000000007bffffffffffffffffffffffffffffffffffffffffffffffffffffffff19166020820180517bffffffffffffffffffffffffffffffffffffffffffffffffffffffff83818316178352505050506106d2565b50505050565b6106ce828260405160240161064c929190610b29565b6040516020818303038152906040527f9710a9d0000000000000000000000000000000000000000000000000000000007bffffffffffffffffffffffffffffffffffffffffffffffffffffffff19166020820180517bffffffffffffffffffffffffffffffffffffffffffffffffffffffff83818316178352505050506106d2565b5050565b60008151905060006a636f6e736f6c652e6c6f679050602083016000808483855afa5050505050565b82805461070790610d41565b90600052602060002090601f0160209004810192826107295760008555610770565b82601f1061074257805160ff1916838001178555610770565b82800160010185558215610770579182015b8281111561076f578251825591602001919060010190610754565b5b50905061077d9190610781565b5090565b5b8082111561079a576000816000905550600101610782565b5090565b60006107b16107ac84610bb9565b610b94565b9050828152602081018484840111156107c957600080fd5b6107d4848285610cff565b509392505050565b600082601f8301126107ed57600080fd5b81356107fd84826020860161079e565b91505092915050565b6000806040838503121561081957600080fd5b600083013567ffffffffffffffff81111561083357600080fd5b61083f858286016107dc565b925050602083013567ffffffffffffffff81111561085c57600080fd5b610868858286016107dc565b9150509250929050565b600061087e83836109e0565b905092915050565b61088f81610cc3565b82525050565b61089e81610cb1565b82525050565b6108ad81610cb1565b82525050565b60006108be82610bfa565b6108c88185610c1d565b9350836020820285016108da85610bea565b8060005b8581101561091657848403895281516108f78582610872565b945061090283610c10565b925060208a019950506001810190506108de565b50829750879550505050505092915050565b600061093382610c05565b61093d8185610c39565b935061094d818560208601610d0e565b61095681610e31565b840191505092915050565b600061096c82610c05565b6109768185610c4a565b9350610986818560208601610d0e565b61098f81610e31565b840191505092915050565b60006109a7601483610c4a565b91506109b282610e42565b602082019050919050565b60006109ca600083610c2e565b91506109d582610e6b565b600082019050919050565b60006060830160008301516109f86000860182610895565b5060208301518482036020860152610a108282610928565b91505060408301518482036040860152610a2a8282610928565b9150508091505092915050565b610a4081610cf5565b82525050565b6000610a51826109bd565b9150819050919050565b6000602082019050610a706000830184610886565b92915050565b60006020820190508181036000830152610a9081846108b3565b905092915050565b60006080820190508181036000830152610ab28187610961565b9050610ac160208301866108a4565b8181036040830152610ad38185610961565b90508181036060830152610ae78184610961565b905095945050505050565b60006040820190508181036000830152610b0c8185610961565b90508181036020830152610b208184610961565b90509392505050565b60006040820190508181036000830152610b438185610961565b9050610b526020830184610a37565b9392505050565b60006020820190508181036000830152610b728161099a565b9050919050565b6000602082019050610b8e6000830184610a37565b92915050565b6000610b9e610baf565b9050610baa8282610d73565b919050565b6000604051905090565b600067ffffffffffffffff821115610bd457610bd3610e02565b5b610bdd82610e31565b9050602081019050919050565b6000819050602082019050919050565b600081519050919050565b600081519050919050565b6000602082019050919050565b600082825260208201905092915050565b600081905092915050565b600082825260208201905092915050565b600082825260208201905092915050565b6000610c6682610cf5565b9150610c7183610cf5565b9250827fffffffffffffffffffffffffffffffffffffffffffffffffffffffffffffffff03821115610ca657610ca5610da4565b5b828201905092915050565b6000610cbc82610cd5565b9050919050565b6000610cce82610cd5565b9050919050565b600073ffffffffffffffffffffffffffffffffffffffff82169050919050565b6000819050919050565b82818337600083830152505050565b60005b83811015610d2c578082015181840152602081019050610d11565b83811115610d3b576000848401525b50505050565b60006002820490506001821680610d5957607f821691505b60208210811415610d6d57610d6c610dd3565b5b50919050565b610d7c82610e31565b810181811067ffffffffffffffff82111715610d9b57610d9a610e02565b5b80604052505050565b7f4e487b7100000000000000000000000000000000000000000000000000000000600052601160045260246000fd5b7f4e487b7100000000000000000000000000000000000000000000000000000000600052602260045260246000fd5b7f4e487b7100000000000000000000000000000000000000000000000000000000600052604160045260246000fd5b6000601f19601f8301169050919050565b7f4661696c656420746f2073656e64204574686572000000000000000000000000600082015250565b5056fe2573206861732073656e7420257320636f6666656573207769746820746865206d657373616765202573a2646970667358221220661da1614074b1ba3c3e19a77e51b7ab9db7688006fe35fa0df9a8f2d3c0777764736f6c63430008040033",
  "linkReferences": {},
  "deployedLinkReferences": {}
}