{
  "_format": "hh-sol-artifact-1",
  "contractName": "BuyMeCoffee",
  "sourceName": "contracts/BuyMeCoffee.sol",
  "abi": [
    {
      "inputs": [],
      "stateMutability": "payable",
      "type": "constructor"
    },
    {
      "anonymous": false,
      "inputs": [
        {
          "indexed": true,
          "internalType": "address",
          "name": "from",
          "type": "address"
        },
        {
          "indexed": false,
          "internalType": "string",
          "name": "amount",
          "type": "string"
        }
      ],
      "name": "NewCoffee",
      "type": "event"
    },
    {
      "inputs": [
        {
          "internalType": "string",
          "name": "_message",
          "type": "string"
        }
      ],
      "name": "deposit",
      "outputs": [],
      "stateMutability": "payable",
      "type": "function"
    },
    {
      "inputs": [],
      "name": "getAllCoffees",
      "outputs": [
        {
          "components": [
            {
              "internalType": "address",
              "name": "sender",
              "type": "address"
            },
            {
              "internalType": "string",
              "name": "message",
              "type": "string"
            }
          ],
          "internalType": "struct BuyMeCoffee.Coffee[]",
          "name": "",
          "type": "tuple[]"
        }
      ],
      "stateMutability": "view",
      "type": "function"
    },
    {
      "inputs": [],
      "name": "getTotalCoffees",
      "outputs": [
        {
          "internalType": "uint256",
          "name": "",
          "type": "uint256"
        }
      ],
      "stateMutability": "view",
      "type": "function"
    },
    {
      "inputs": [],
      "name": "owner",
      "outputs": [
        {
          "internalType": "address payable",
          "name": "",
          "type": "address"
        }
      ],
      "stateMutability": "view",
      "type": "function"
    },
    {
      "inputs": [],
      "name": "withdraw",
      "outputs": [],
      "stateMutability": "nonpayable",
      "type": "function"
    }
  ],
  "bytecode": "0x608060405233600160006101000a81548173ffffffffffffffffffffffffffffffffffffffff021916908373ffffffffffffffffffffffffffffffffffffffff160217905550610d96806100546000396000f3fe60806040526004361061004a5760003560e01c80633ccfd60b1461004f5780638da5cb5b14610066578063a26e118614610091578063b02eafb1146100ad578063c2000268146100d8575b600080fd5b34801561005b57600080fd5b50610064610103565b005b34801561007257600080fd5b5061007b6101da565b6040516100889190610977565b60405180910390f35b6100ab60048036038101906100a69190610767565b610200565b005b3480156100b957600080fd5b506100c2610366565b6040516100cf9190610a6b565b60405180910390f35b3480156100e457600080fd5b506100ed6103b1565b6040516100fa9190610992565b60405180910390f35b60004790506000600160009054906101000a900473ffffffffffffffffffffffffffffffffffffffff1673ffffffffffffffffffffffffffffffffffffffff168260405161015090610962565b60006040518083038185875af1925050503d806000811461018d576040519150601f19603f3d011682016040523d82523d6000602084013e610192565b606091505b50509050806101d6576040517f08c379a00000000000000000000000000000000000000000000000000000000081526004016101cd90610a4b565b60405180910390fd5b5050565b600160009054906101000a900473ffffffffffffffffffffffffffffffffffffffff1681565b60016000808282546102129190610b4d565b925050819055506102596040518060400160405280601681526020017f2573206861732073656e7420257320636f66666565730000000000000000000081525033836104f8565b600260405180604001604052803373ffffffffffffffffffffffffffffffffffffffff16815260200183815250908060018154018082558091505060019003906000526020600020906002020160009091909190915060008201518160000160006101000a81548173ffffffffffffffffffffffffffffffffffffffff021916908373ffffffffffffffffffffffffffffffffffffffff160217905550602082015181600101908051906020019061031292919061065c565b5050503373ffffffffffffffffffffffffffffffffffffffff167f2254c13c454e7d62d08825d1f659433f34608e0b66bb9704bbd7176668d4443f8260405161035b91906109b4565b60405180910390a250565b60006103a96040518060400160405280601a81526020017f546f74616c20636f66666565732072656365697665643a202573000000000000815250600054610597565b600054905090565b60606002805480602002602001604051908101604052809291908181526020016000905b828210156104ef57838290600052602060002090600202016040518060400160405290816000820160009054906101000a900473ffffffffffffffffffffffffffffffffffffffff1673ffffffffffffffffffffffffffffffffffffffff1673ffffffffffffffffffffffffffffffffffffffff16815260200160018201805461045e90610c33565b80601f016020809104026020016040519081016040528092919081815260200182805461048a90610c33565b80156104d75780601f106104ac576101008083540402835291602001916104d7565b820191906000526020600020905b8154815290600101906020018083116104ba57829003601f168201915b505050505081525050815260200190600101906103d5565b50505050905090565b610592838383604051602401610510939291906109d6565b6040516020818303038152906040527fe0e9ad4f000000000000000000000000000000000000000000000000000000007bffffffffffffffffffffffffffffffffffffffffffffffffffffffff19166020820180517bffffffffffffffffffffffffffffffffffffffffffffffffffffffff8381831617835250505050610633565b505050565b61062f82826040516024016105ad929190610a1b565b6040516020818303038152906040527f9710a9d0000000000000000000000000000000000000000000000000000000007bffffffffffffffffffffffffffffffffffffffffffffffffffffffff19166020820180517bffffffffffffffffffffffffffffffffffffffffffffffffffffffff8381831617835250505050610633565b5050565b60008151905060006a636f6e736f6c652e6c6f679050602083016000808483855afa5050505050565b82805461066890610c33565b90600052602060002090601f01602090048101928261068a57600085556106d1565b82601f106106a357805160ff19168380011785556106d1565b828001600101855582156106d1579182015b828111156106d05782518255916020019190600101906106b5565b5b5090506106de91906106e2565b5090565b5b808211156106fb5760008160009055506001016106e3565b5090565b600061071261070d84610aab565b610a86565b90508281526020810184848401111561072a57600080fd5b610735848285610bf1565b509392505050565b600082601f83011261074e57600080fd5b813561075e8482602086016106ff565b91505092915050565b60006020828403121561077957600080fd5b600082013567ffffffffffffffff81111561079357600080fd5b61079f8482850161073d565b91505092915050565b60006107b48383610916565b905092915050565b6107c581610bb5565b82525050565b6107d481610ba3565b82525050565b6107e381610ba3565b82525050565b60006107f482610aec565b6107fe8185610b0f565b93508360208202850161081085610adc565b8060005b8581101561084c578484038952815161082d85826107a8565b945061083883610b02565b925060208a01995050600181019050610814565b50829750879550505050505092915050565b600061086982610af7565b6108738185610b2b565b9350610883818560208601610c00565b61088c81610d23565b840191505092915050565b60006108a282610af7565b6108ac8185610b3c565b93506108bc818560208601610c00565b6108c581610d23565b840191505092915050565b60006108dd601483610b3c565b91506108e882610d34565b602082019050919050565b6000610900600083610b20565b915061090b82610d5d565b600082019050919050565b600060408301600083015161092e60008601826107cb565b5060208301518482036020860152610946828261085e565b9150508091505092915050565b61095c81610be7565b82525050565b600061096d826108f3565b9150819050919050565b600060208201905061098c60008301846107bc565b92915050565b600060208201905081810360008301526109ac81846107e9565b905092915050565b600060208201905081810360008301526109ce8184610897565b905092915050565b600060608201905081810360008301526109f08186610897565b90506109ff60208301856107da565b8181036040830152610a118184610897565b9050949350505050565b60006040820190508181036000830152610a358185610897565b9050610a446020830184610953565b9392505050565b60006020820190508181036000830152610a64816108d0565b9050919050565b6000602082019050610a806000830184610953565b92915050565b6000610a90610aa1565b9050610a9c8282610c65565b919050565b6000604051905090565b600067ffffffffffffffff821115610ac657610ac5610cf4565b5b610acf82610d23565b9050602081019050919050565b6000819050602082019050919050565b600081519050919050565b600081519050919050565b6000602082019050919050565b600082825260208201905092915050565b600081905092915050565b600082825260208201905092915050565b600082825260208201905092915050565b6000610b5882610be7565b9150610b6383610be7565b9250827fffffffffffffffffffffffffffffffffffffffffffffffffffffffffffffffff03821115610b9857610b97610c96565b5b828201905092915050565b6000610bae82610bc7565b9050919050565b6000610bc082610bc7565b9050919050565b600073ffffffffffffffffffffffffffffffffffffffff82169050919050565b6000819050919050565b82818337600083830152505050565b60005b83811015610c1e578082015181840152602081019050610c03565b83811115610c2d576000848401525b50505050565b60006002820490506001821680610c4b57607f821691505b60208210811415610c5f57610c5e610cc5565b5b50919050565b610c6e82610d23565b810181811067ffffffffffffffff82111715610c8d57610c8c610cf4565b5b80604052505050565b7f4e487b7100000000000000000000000000000000000000000000000000000000600052601160045260246000fd5b7f4e487b7100000000000000000000000000000000000000000000000000000000600052602260045260246000fd5b7f4e487b7100000000000000000000000000000000000000000000000000000000600052604160045260246000fd5b6000601f19601f8301169050919050565b7f4661696c656420746f2073656e64204574686572000000000000000000000000600082015250565b5056fea26469706673582212201eff71327279d4a02f9746c99f41e7273a0d7d052bb16dc8e9c9e3b1c5e430c264736f6c63430008040033",
  "linkReferences": {},
  "deployedLinkReferences": {}
}